:020000040000FA
:10000000000000EB240000EB2C008FE2000C90E8D5
:1000100000A08AE000B08BE001704AE20B005AE1D8
:100020000000001A1C0000EB0F00BAE818E04FE2D5
:10003000010013E303F0471013FF2FE1C401000098
:10004000D40100000030B0E30040B0E30050B0E362
:100050000060B0E3102052E27800A128FCFFFF8A84
:10006000822EB0E13000A128003081451EFF2FE133
:1000700001C08FE21CFF2FE11FB5059886460FBC1B
:10008000009C02B07047000001C08FE21CFF2FE10E
:1000900030B47546AE4630BC70470000330000EB0C
:1000A0000210A0E1F1FFFFEB1CC09FE50FC08CE048
:1000B00001001CE30DE08F120FE0A0011CFF2FE1F7
:1000C00001C08FE21CFF2FE100F082F87C000000ED
:1000D0007847C04603002DE9EAFFFFEB0300BDE8C7
:1000E000400000EB0C009FE50C109FE504209FE50D
:1000F00008309FE51EFF2FE16000004060040040D3
:10010000600000400000A0E3050000EA0010A0E34A
:10011000000000EA011081E2FF0051E3FCFFFFBA9A
:10012000010080E2FF0050E3F7FFFFBA1EFF2FE15E
:100130000100A0E328109FE5080081E5070000EA20
:100140000100A0E318109FE5040081E5ECFFFFEB40
:100150000100A0E308109FE50C0081E5E8FFFFEB3C
:10016000F6FFFFEA008002E070477047704700002A
:100170000E50A0E1180000EB05E0A0E10050B0E156
:100180000D10A0E10A30A0E10700C0E300D0A0E11B
:1001900060D08DE220402DE9D1FFFFEB2040BDE88B
:1001A0000060A0E30070A0E30080A0E300B0A0E343
:1001B0000710C1E305C0A0E1C009ACE8C009ACE884
:1001C000C009ACE8C009ACE801D0A0E11EFF2FE1F6
:1001D0000400C046C0462000FFF77AFF00009FE5FC
:1001E0001EFF2FE10000004001C08FE21CFF2FE145
:1001F00001491820ABDFFEE7260002001EFF2FE1B9
:100200001002000000000040E8040000440000006C
:0400000500000000F7
:00000001FF
