:020000040000FA
:10000000000000EB240000EB2C008FE2000C90E8D5
:1000100000A08AE000B08BE001704AE20B005AE1D8
:100020000000001A1C0000EB0F00BAE818E04FE2D5
:10003000010013E303F0471013FF2FE1F401000068
:10004000040200000030B0E30040B0E30050B0E331
:100050000060B0E3102052E27800A128FCFFFF8A84
:10006000822EB0E13000A128003081451EFF2FE133
:1000700001C08FE21CFF2FE11FB5059886460FBC1B
:10008000009C02B07047000001C08FE21CFF2FE10E
:1000900030B47546AE4630BC704700003F0000EB00
:1000A0000210A0E1F1FFFFEB1CC09FE50FC08CE048
:1000B00001001CE30DE08F120FE0A0011CFF2FE1F7
:1000C00001C08FE21CFF2FE100F09AF85000000001
:1000D0007847C04603002DE9EAFFFFEB0300BDE8C7
:1000E0004C0000EB0C009FE50C109FE504209FE501
:1000F00008309FE51EFF2FE16000004060040040D3
:10010000600000400CD04DE274308FE20E0093E8A6
:100110000E008DE80510A0E370209FE5001082E539
:100120008310A0E30125C2E10C10C2E56110A0E339
:100130000010C2E50010A0E30410C2E50310A0E324
:100140000C10C2E50D0000EA0000A0E3080000EA80
:100150000000A0E138109FE51410D1E5600011E324
:10016000FBFFFF0A0010DDE724209FE50010C2E539
:10017000010080E20010DDE7000051E3F3FFFF1A09
:10018000F0FFFFEA48656C6C6F20576F726C64007B
:1001900000C002E000C000E07047704770470000F8
:1001A0000E50A0E1180000EB05E0A0E10050B0E126
:1001B0000D10A0E10A30A0E10700C0E300D0A0E1EB
:1001C00060D08DE220402DE9C5FFFFEB2040BDE867
:1001D0000060A0E30070A0E30080A0E300B0A0E313
:1001E0000710C1E305C0A0E1C009ACE8C009ACE854
:1001F000C009ACE8C009ACE801D0A0E11EFF2FE1C6
:100200000400C046C0462000FFF762FF00009FE5E3
:100210001EFF2FE10000004001C08FE21CFF2FE114
:1002200001491820ABDFFEE7260002001EFF2FE188
:100230004002000000000040E8040000440000000C
:0400000500000000F7
:00000001FF
