:020000040000FA
:10000000000000EB240000EB2C008FE2000C90E8D5
:1000100000A08AE000B08BE001704AE20B005AE1D8
:100020000000001A1C0000EB0F00BAE818E04FE2D5
:10003000010013E303F0471013FF2FE1C00100009C
:10004000D00100000030B0E30040B0E30050B0E366
:100050000060B0E3102052E27800A128FCFFFF8A84
:10006000822EB0E13000A128003081451EFF2FE133
:1000700001C08FE21CFF2FE11FB5059886460FBC1B
:10008000009C02B07047000001C08FE21CFF2FE10E
:1000900030B47546AE4630BC70470000320000EB0D
:1000A0000210A0E1F1FFFFEB1CC09FE50FC08CE048
:1000B00001001CE30DE08F120FE0A0011CFF2FE1F7
:1000C00001C08FE21CFF2FE100F080F8500000001B
:1000D0007847C04603002DE9EAFFFFEB0300BDE8C7
:1000E0003F0000EB0C009FE50C109FE504209FE50E
:1000F00008309FE51EFF2FE16000004060040040D3
:10010000600000400500A0E34C109FE5000081E581
:100110008300A0E30015C1E10C00C1E56100A0E38C
:100120000000C1E50000A0E30400C1E50300A0E376
:100130000C00C1E5070000EA0000A0E11C009FE5FB
:100140001400D0E5600010E3FBFFFF0A4100A0E3CC
:1001500008109FE50000C1E5F6FFFFEA00C002E0DD
:1001600000C000E070477047704700000E50A0E1EB
:10017000180000EB05E0A0E10050B0E10D10A0E197
:100180000A30A0E10700C0E300D0A0E160D08DE21A
:1001900020402DE9D2FFFFEB2040BDE80060A0E346
:1001A0000070A0E30080A0E300B0A0E30710C1E36B
:1001B00005C0A0E1C009ACE8C009ACE8C009ACE8E2
:1001C000C009ACE801D0A0E11EFF2FE10400C04649
:1001D000C0462000FFF77CFF00009FE51EFF2FE1D7
:1001E0000000004001C08FE21CFF2FE101491820F0
:1001F000ABDFFEE7260002001EFF2FE10C0200002D
:0C02000000000040E80400004400000082
:0400000500000000F7
:00000001FF
