:020000040000FA
:10000000000000EB240000EB2C008FE2000C90E8D5
:1000100000A08AE000B08BE001704AE20B005AE1D8
:100020000000001A1C0000EB0F00BAE818E04FE2D5
:10003000010013E303F0471013FF2FE1D801000084
:10004000E80100000030B0E30040B0E30050B0E34E
:100050000060B0E3102052E27800A128FCFFFF8A84
:10006000822EB0E13000A128003081451EFF2FE133
:1000700001C08FE21CFF2FE11FB5059886460FBC1B
:10008000009C02B07047000001C08FE21CFF2FE10E
:1000900030B47546AE4630BC70470000380000EB07
:1000A0000210A0E1F1FFFFEB1CC09FE50FC08CE048
:1000B00001001CE30DE08F120FE0A0011CFF2FE1F7
:1000C00001C08FE21CFF2FE100F08CF8B0000000AF
:1000D0007847C04603002DE9EAFFFFEB0300BDE8C7
:1000E000450000EB0C009FE50C109FE504209FE508
:1000F00008309FE51EFF2FE16000004060040040D3
:10010000600000402400A0E368109FE58400C1E582
:100110000100A0E38000C1E5AA00A0E38C00C1E5D6
:100120005500A0E38C00C1E50000A0E144009FE57C
:10013000B808D0E1010B10E3FBFFFF0A0300A0E3C6
:1001400030109FE58000C1E50100A0E30001C1E59A
:10015000AA00A0E38C00C1E55500A0E38C00C1E536
:100160001EFF2FE104E02DE5E5FFFFEB0000A0E31B
:1001700004E09DE41EFF2FE100C01FE070477047C0
:10018000704700000E50A0E1180000EB05E0A0E170
:100190000050B0E10D10A0E10A30A0E10700C0E37B
:1001A00000D0A0E160D08DE220402DE9CCFFFFEB34
:1001B0002040BDE80060A0E30070A0E30080A0E361
:1001C00000B0A0E30710C1E305C0A0E1C009ACE89E
:1001D000C009ACE8C009ACE8C009ACE801D0A0E1B6
:1001E0001EFF2FE10400C046C0462000FFF770FF4D
:1001F00000009FE51EFF2FE10000004001C08FE2DC
:100200001CFF2FE101491820ABDFFEE726000200AA
:100210001EFF2FE12402000000000040E80400005F
:040220004400000096
:0400000500000000F7
:00000001FF
