:020000040000FA
:10000000000000EB240000EB2C008FE2000C90E8D5
:1000100000A08AE000B08BE001704AE20B005AE1D8
:100020000000001A1C0000EB0F00BAE818E04FE2D5
:10003000010013E303F0471013FF2FE1000200005B
:10004000100200000030B0E30040B0E30050B0E325
:100050000060B0E3102052E27800A128FCFFFF8A84
:10006000822EB0E13000A128003081451EFF2FE133
:1000700001C08FE21CFF2FE11FB5059886460FBC1B
:10008000009C02B07047000001C08FE21CFF2FE10E
:1000900030B47546AE4630BC70470000420000EBFD
:1000A0000210A0E1F1FFFFEB1CC09FE50FC08CE048
:1000B00001001CE30DE08F120FE0A0011CFF2FE1F7
:1000C00001C08FE21CFF2FE100F0A0F850000000FB
:1000D0007847C04603002DE9EAFFFFEB0300BDE8C7
:1000E0004F0000EB0C009FE50C109FE504209FE5FE
:1000F00008309FE51EFF2FE16000004060040040D3
:10010000600000400117A0E38C209FE5081082E505
:100110000510A0E3012982E2001082E58310A0E32C
:100120000125C2E10C10C2E5C310A0E30010C2E536
:100130000010A0E30410C2E50310A0E30C10C2E518
:10014000140000EA0000A0E150109FE51410D1E572
:10015000010011E3FBFFFF0A40109FE50000D1E51D
:10016000300050E30500000A310050E30800001A97
:100170000117A0E320209FE5041082E5040000EAB7
:100180000000A0E10117A0E30C209FE50C1082E520
:100190000000A0E10000A0E1E9FFFFEA008002E02A
:1001A00000C000E070477047704700000E50A0E1AB
:1001B000180000EB05E0A0E10050B0E10D10A0E157
:1001C0000A30A0E10700C0E300D0A0E160D08DE2DA
:1001D00020402DE9C2FFFFEB2040BDE80060A0E316
:1001E0000070A0E30080A0E300B0A0E30710C1E32B
:1001F00005C0A0E1C009ACE8C009ACE8C009ACE8A2
:10020000C009ACE801D0A0E11EFF2FE10400C04608
:10021000C0462000FFF75CFF00009FE51EFF2FE1B6
:100220000000004001C08FE21CFF2FE101491820AF
:10023000ABDFFEE7260002001EFF2FE14C020000AC
:0C02400000000040E80400004400000042
:0400000500000000F7
:00000001FF
